{
    "_format": "hh-sol-artifact-1",
    "contractName": "EdiDemo",
    "sourceName": "contracts/EdiDemo.sol",
    "abi": [
        {
            "inputs": [
                {
                    "internalType": "string",
                    "name": "_fname",
                    "type": "string"
                },
                {
                    "internalType": "string",
                    "name": "_lname",
                    "type": "string"
                },
                {
                    "internalType": "bool",
                    "name": "_status",
                    "type": "bool"
                }
            ],
            "name": "addEmployee",
            "outputs": [],
            "stateMutability": "nonpayable",
            "type": "function"
        },
        {
            "inputs": [
                {
                    "internalType": "int256",
                    "name": "empid",
                    "type": "int256"
                }
            ],
            "name": "getEmployee",
            "outputs": [
                {
                    "internalType": "string",
                    "name": "",
                    "type": "string"
                },
                {
                    "internalType": "string",
                    "name": "",
                    "type": "string"
                },
                {
                    "internalType": "bool",
                    "name": "",
                    "type": "bool"
                }
            ],
            "stateMutability": "view",
            "type": "function"
        },
        {
            "inputs": [],
            "name": "returnAll",
            "outputs": [
                {
                    "components": [
                        {
                            "internalType": "int256",
                            "name": "empid",
                            "type": "int256"
                        },
                        {
                            "internalType": "string",
                            "name": "firstName",
                            "type": "string"
                        },
                        {
                            "internalType": "string",
                            "name": "lastName",
                            "type": "string"
                        },
                        {
                            "internalType": "bool",
                            "name": "status",
                            "type": "bool"
                        }
                    ],
                    "internalType": "struct EdiDemo.Employee[]",
                    "name": "",
                    "type": "tuple[]"
                }
            ],
            "stateMutability": "view",
            "type": "function"
        }
    ],
    "bytecode": "0x60806040526001805534801561001457600080fd5b50610cc5806100246000396000f3fe608060405234801561001057600080fd5b50600436106100415760003560e01c806321bbba5d1461004657806385b1423e14610078578063c898c9cd14610096575b600080fd5b610060600480360381019061005b919061066c565b6100b2565b60405161006f9392919061074d565b60405180910390f35b6100806102fe565b60405161008d9190610926565b60405180910390f35b6100b060048036038101906100ab9190610aa9565b6104a6565b005b606080600080600090505b60008054905081101561027f5760008082815481106100df576100de610b34565b5b90600052602060002090600402016040518060800160405290816000820154815260200160018201805461011290610b92565b80601f016020809104026020016040519081016040528092919081815260200182805461013e90610b92565b801561018b5780601f106101605761010080835404028352916020019161018b565b820191906000526020600020905b81548152906001019060200180831161016e57829003601f168201915b505050505081526020016002820180546101a490610b92565b80601f01602080910402602001604051908101604052809291908181526020018280546101d090610b92565b801561021d5780601f106101f25761010080835404028352916020019161021d565b820191906000526020600020905b81548152906001019060200180831161020057829003601f168201915b505050505081526020016003820160009054906101000a900460ff1615151515815250509050858160000151141561026b5780602001518160400151826060015194509450945050506102f7565b50808061027790610bfd565b9150506100bd565b60006040518060400160405280600981526020017f4e6f7420466f756e640000000000000000000000000000000000000000000000815250906040518060400160405280600981526020017f4e6f7420466f756e64000000000000000000000000000000000000000000000081525090935093509350505b9193909250565b60606000805480602002602001604051908101604052809291908181526020016000905b8282101561049d57838290600052602060002090600402016040518060800160405290816000820154815260200160018201805461035f90610b92565b80601f016020809104026020016040519081016040528092919081815260200182805461038b90610b92565b80156103d85780601f106103ad576101008083540402835291602001916103d8565b820191906000526020600020905b8154815290600101906020018083116103bb57829003601f168201915b505050505081526020016002820180546103f190610b92565b80601f016020809104026020016040519081016040528092919081815260200182805461041d90610b92565b801561046a5780601f1061043f5761010080835404028352916020019161046a565b820191906000526020600020905b81548152906001019060200180831161044d57829003601f168201915b505050505081526020016003820160009054906101000a900460ff16151515158152505081526020019060010190610322565b50505050905090565b6000604051806080016040528060015481526020018581526020018481526020018315158152509050600081908060018154018082558091505060019003906000526020600020906004020160009091909190915060008201518160000155602082015181600101908051906020019061052192919061057f565b50604082015181600201908051906020019061053e92919061057f565b5060608201518160030160006101000a81548160ff02191690831515021790555050506001600081548092919061057490610c46565b919050555050505050565b82805461058b90610b92565b90600052602060002090601f0160209004810192826105ad57600085556105f4565b82601f106105c657805160ff19168380011785556105f4565b828001600101855582156105f4579182015b828111156105f35782518255916020019190600101906105d8565b5b5090506106019190610605565b5090565b5b8082111561061e576000816000905550600101610606565b5090565b6000604051905090565b600080fd5b600080fd5b6000819050919050565b61064981610636565b811461065457600080fd5b50565b60008135905061066681610640565b92915050565b6000602082840312156106825761068161062c565b5b600061069084828501610657565b91505092915050565b600081519050919050565b600082825260208201905092915050565b60005b838110156106d35780820151818401526020810190506106b8565b838111156106e2576000848401525b50505050565b6000601f19601f8301169050919050565b600061070482610699565b61070e81856106a4565b935061071e8185602086016106b5565b610727816106e8565b840191505092915050565b60008115159050919050565b61074781610732565b82525050565b6000606082019050818103600083015261076781866106f9565b9050818103602083015261077b81856106f9565b905061078a604083018461073e565b949350505050565b600081519050919050565b600082825260208201905092915050565b6000819050602082019050919050565b6107c781610636565b82525050565b600082825260208201905092915050565b60006107e982610699565b6107f381856107cd565b93506108038185602086016106b5565b61080c816106e8565b840191505092915050565b61082081610732565b82525050565b600060808301600083015161083e60008601826107be565b506020830151848203602086015261085682826107de565b9150506040830151848203604086015261087082826107de565b91505060608301516108856060860182610817565b508091505092915050565b600061089c8383610826565b905092915050565b6000602082019050919050565b60006108bc82610792565b6108c6818561079d565b9350836020820285016108d8856107ae565b8060005b8581101561091457848403895281516108f58582610890565b9450610900836108a4565b925060208a019950506001810190506108dc565b50829750879550505050505092915050565b6000602082019050818103600083015261094081846108b1565b905092915050565b600080fd5b600080fd5b7f4e487b7100000000000000000000000000000000000000000000000000000000600052604160045260246000fd5b61098a826106e8565b810181811067ffffffffffffffff821117156109a9576109a8610952565b5b80604052505050565b60006109bc610622565b90506109c88282610981565b919050565b600067ffffffffffffffff8211156109e8576109e7610952565b5b6109f1826106e8565b9050602081019050919050565b82818337600083830152505050565b6000610a20610a1b846109cd565b6109b2565b905082815260208101848484011115610a3c57610a3b61094d565b5b610a478482856109fe565b509392505050565b600082601f830112610a6457610a63610948565b5b8135610a74848260208601610a0d565b91505092915050565b610a8681610732565b8114610a9157600080fd5b50565b600081359050610aa381610a7d565b92915050565b600080600060608486031215610ac257610ac161062c565b5b600084013567ffffffffffffffff811115610ae057610adf610631565b5b610aec86828701610a4f565b935050602084013567ffffffffffffffff811115610b0d57610b0c610631565b5b610b1986828701610a4f565b9250506040610b2a86828701610a94565b9150509250925092565b7f4e487b7100000000000000000000000000000000000000000000000000000000600052603260045260246000fd5b7f4e487b7100000000000000000000000000000000000000000000000000000000600052602260045260246000fd5b60006002820490506001821680610baa57607f821691505b60208210811415610bbe57610bbd610b63565b5b50919050565b7f4e487b7100000000000000000000000000000000000000000000000000000000600052601160045260246000fd5b6000819050919050565b6000610c0882610bf3565b91507fffffffffffffffffffffffffffffffffffffffffffffffffffffffffffffffff821415610c3b57610c3a610bc4565b5b600182019050919050565b6000610c5182610636565b91507f7fffffffffffffffffffffffffffffffffffffffffffffffffffffffffffffff821415610c8457610c83610bc4565b5b60018201905091905056fea2646970667358221220d9c4cb93f5aed9d284f1393d771a41558254b0e10381e48dc6d46f82fc5de20b64736f6c63430008090033",
    "linkReferences": {},
    "deployedLinkReferences": {}
}